{
  "_format": "hh-sol-artifact-1",
  "contractName": "router",
  "sourceName": "contracts/Router.sol",
  "abi": [
    {
      "inputs": [
        {
          "internalType": "address",
          "name": "_vault",
          "type": "address"
        }
      ],
      "stateMutability": "nonpayable",
      "type": "constructor"
    },
    {
      "inputs": [
        {
          "internalType": "uint256",
          "name": "id",
          "type": "uint256"
        },
        {
          "internalType": "address",
          "name": "_borrower",
          "type": "address"
        }
      ],
      "name": "addBorrowerToRequest",
      "outputs": [],
      "stateMutability": "nonpayable",
      "type": "function"
    },
    {
      "inputs": [],
      "name": "checkForDefaulters",
      "outputs": [
        {
          "components": [
            {
              "internalType": "uint256",
              "name": "id",
              "type": "uint256"
            },
            {
              "internalType": "address",
              "name": "lender",
              "type": "address"
            },
            {
              "internalType": "address",
              "name": "borrower",
              "type": "address"
            },
            {
              "internalType": "uint256",
              "name": "amount",
              "type": "uint256"
            },
            {
              "internalType": "uint256",
              "name": "interest",
              "type": "uint256"
            },
            {
              "internalType": "uint256",
              "name": "duration",
              "type": "uint256"
            },
            {
              "internalType": "bool",
              "name": "isFinalised",
              "type": "bool"
            },
            {
              "internalType": "uint256",
              "name": "genesisTime",
              "type": "uint256"
            },
            {
              "internalType": "uint256",
              "name": "emi",
              "type": "uint256"
            },
            {
              "internalType": "bool",
              "name": "defaulted",
              "type": "bool"
            },
            {
              "internalType": "uint256",
              "name": "amountRepaid",
              "type": "uint256"
            }
          ],
          "internalType": "struct Vault.Request[]",
          "name": "",
          "type": "tuple[]"
        }
      ],
      "stateMutability": "nonpayable",
      "type": "function"
    },
    {
      "inputs": [
        {
          "internalType": "uint256",
          "name": "id",
          "type": "uint256"
        }
      ],
      "name": "convertRequestToOffer",
      "outputs": [],
      "stateMutability": "nonpayable",
      "type": "function"
    },
    {
      "inputs": [
        {
          "internalType": "uint256",
          "name": "_amount",
          "type": "uint256"
        },
        {
          "internalType": "uint256",
          "name": "_interest",
          "type": "uint256"
        },
        {
          "internalType": "uint256",
          "name": "_duration",
          "type": "uint256"
        }
      ],
      "name": "createRequest",
      "outputs": [],
      "stateMutability": "nonpayable",
      "type": "function"
    },
    {
      "inputs": [],
      "name": "getAllDefaulterAddress",
      "outputs": [
        {
          "internalType": "address[]",
          "name": "",
          "type": "address[]"
        }
      ],
      "stateMutability": "view",
      "type": "function"
    },
    {
      "inputs": [],
      "name": "getAllRequests",
      "outputs": [
        {
          "components": [
            {
              "internalType": "uint256",
              "name": "id",
              "type": "uint256"
            },
            {
              "internalType": "address",
              "name": "lender",
              "type": "address"
            },
            {
              "internalType": "address",
              "name": "borrower",
              "type": "address"
            },
            {
              "internalType": "uint256",
              "name": "amount",
              "type": "uint256"
            },
            {
              "internalType": "uint256",
              "name": "interest",
              "type": "uint256"
            },
            {
              "internalType": "uint256",
              "name": "duration",
              "type": "uint256"
            },
            {
              "internalType": "bool",
              "name": "isFinalised",
              "type": "bool"
            },
            {
              "internalType": "uint256",
              "name": "genesisTime",
              "type": "uint256"
            },
            {
              "internalType": "uint256",
              "name": "emi",
              "type": "uint256"
            },
            {
              "internalType": "bool",
              "name": "defaulted",
              "type": "bool"
            },
            {
              "internalType": "uint256",
              "name": "amountRepaid",
              "type": "uint256"
            }
          ],
          "internalType": "struct Vault.Request[]",
          "name": "",
          "type": "tuple[]"
        }
      ],
      "stateMutability": "view",
      "type": "function"
    },
    {
      "inputs": [],
      "name": "getBorrowerRequest",
      "outputs": [
        {
          "components": [
            {
              "internalType": "uint256",
              "name": "id",
              "type": "uint256"
            },
            {
              "internalType": "address",
              "name": "lender",
              "type": "address"
            },
            {
              "internalType": "address",
              "name": "borrower",
              "type": "address"
            },
            {
              "internalType": "uint256",
              "name": "amount",
              "type": "uint256"
            },
            {
              "internalType": "uint256",
              "name": "interest",
              "type": "uint256"
            },
            {
              "internalType": "uint256",
              "name": "duration",
              "type": "uint256"
            },
            {
              "internalType": "bool",
              "name": "isFinalised",
              "type": "bool"
            },
            {
              "internalType": "uint256",
              "name": "genesisTime",
              "type": "uint256"
            },
            {
              "internalType": "uint256",
              "name": "emi",
              "type": "uint256"
            },
            {
              "internalType": "bool",
              "name": "defaulted",
              "type": "bool"
            },
            {
              "internalType": "uint256",
              "name": "amountRepaid",
              "type": "uint256"
            }
          ],
          "internalType": "struct Vault.Request[]",
          "name": "",
          "type": "tuple[]"
        }
      ],
      "stateMutability": "view",
      "type": "function"
    },
    {
      "inputs": [
        {
          "internalType": "address",
          "name": "_lender",
          "type": "address"
        }
      ],
      "name": "getNotNullLenderRequests",
      "outputs": [
        {
          "components": [
            {
              "internalType": "uint256",
              "name": "id",
              "type": "uint256"
            },
            {
              "internalType": "address",
              "name": "lender",
              "type": "address"
            },
            {
              "internalType": "address",
              "name": "borrower",
              "type": "address"
            },
            {
              "internalType": "uint256",
              "name": "amount",
              "type": "uint256"
            },
            {
              "internalType": "uint256",
              "name": "interest",
              "type": "uint256"
            },
            {
              "internalType": "uint256",
              "name": "duration",
              "type": "uint256"
            },
            {
              "internalType": "bool",
              "name": "isFinalised",
              "type": "bool"
            },
            {
              "internalType": "uint256",
              "name": "genesisTime",
              "type": "uint256"
            },
            {
              "internalType": "uint256",
              "name": "emi",
              "type": "uint256"
            },
            {
              "internalType": "bool",
              "name": "defaulted",
              "type": "bool"
            },
            {
              "internalType": "uint256",
              "name": "amountRepaid",
              "type": "uint256"
            }
          ],
          "internalType": "struct Vault.Request[]",
          "name": "",
          "type": "tuple[]"
        }
      ],
      "stateMutability": "view",
      "type": "function"
    },
    {
      "inputs": [
        {
          "internalType": "uint256",
          "name": "id",
          "type": "uint256"
        }
      ],
      "name": "payDues",
      "outputs": [],
      "stateMutability": "nonpayable",
      "type": "function"
    },
    {
      "inputs": [
        {
          "internalType": "uint256",
          "name": "id",
          "type": "uint256"
        }
      ],
      "name": "removeBorrowerFromRequest",
      "outputs": [],
      "stateMutability": "nonpayable",
      "type": "function"
    },
    {
      "inputs": [
        {
          "internalType": "address",
          "name": "_owner",
          "type": "address"
        }
      ],
      "name": "setOwner",
      "outputs": [],
      "stateMutability": "nonpayable",
      "type": "function"
    }
  ],
  "bytecode": "0x60806040523480156200001157600080fd5b506040516200139a3803806200139a833981810160405281019062000037919062000129565b80600160006101000a81548173ffffffffffffffffffffffffffffffffffffffff021916908373ffffffffffffffffffffffffffffffffffffffff160217905550336000806101000a81548173ffffffffffffffffffffffffffffffffffffffff021916908373ffffffffffffffffffffffffffffffffffffffff160217905550506200015b565b600080fd5b600073ffffffffffffffffffffffffffffffffffffffff82169050919050565b6000620000f182620000c4565b9050919050565b6200010381620000e4565b81146200010f57600080fd5b50565b6000815190506200012381620000f8565b92915050565b600060208284031215620001425762000141620000bf565b5b6000620001528482850162000112565b91505092915050565b61122f806200016b6000396000f3fe608060405234801561001057600080fd5b50600436106100a95760003560e01c80637aa41ffd116100715780637aa41ffd146101505780638137c3731461016c5780639c35ff5f14610188578063aa018182146101a4578063b496d4e4146101c2578063fb1a002a146101e0576100a9565b806312c15080146100ae57806313af4035146100cc5780634a0ce37f146100e857806369c278e9146101185780636f9fb86c14610134575b600080fd5b6100b66101fe565b6040516100c39190610ab8565b60405180910390f35b6100e660048036038101906100e19190610b1a565b6102a8565b005b61010260048036038101906100fd9190610b1a565b610343565b60405161010f9190610ab8565b60405180910390f35b610132600480360381019061012d9190610b73565b6103ed565b005b61014e60048036038101906101499190610bb3565b610482565b005b61016a60048036038101906101659190610bb3565b610514565b005b61018660048036038101906101819190610be0565b6105a6565b005b6101a2600480360381019061019d9190610bb3565b61063e565b005b6101ac6106d0565b6040516101b99190610ab8565b60405180910390f35b6101ca610778565b6040516101d79190610ce2565b60405180910390f35b6101e8610815565b6040516101f59190610ab8565b60405180910390f35b6060600160009054906101000a900473ffffffffffffffffffffffffffffffffffffffff1673ffffffffffffffffffffffffffffffffffffffff166394721f3c336040518263ffffffff1660e01b815260040161025b9190610d13565b6000604051808303816000875af115801561027a573d6000803e3d6000fd5b505050506040513d6000823e3d601f19601f820116820180604052508101906102a39190610ff0565b905090565b60008054906101000a900473ffffffffffffffffffffffffffffffffffffffff1673ffffffffffffffffffffffffffffffffffffffff163373ffffffffffffffffffffffffffffffffffffffff161461030057600080fd5b806000806101000a81548173ffffffffffffffffffffffffffffffffffffffff021916908373ffffffffffffffffffffffffffffffffffffffff16021790555050565b6060600160009054906101000a900473ffffffffffffffffffffffffffffffffffffffff1673ffffffffffffffffffffffffffffffffffffffff16634a0ce37f836040518263ffffffff1660e01b81526004016103a09190610d13565b600060405180830381865afa1580156103bd573d6000803e3d6000fd5b505050506040513d6000823e3d601f19601f820116820180604052508101906103e69190610ff0565b9050919050565b600160009054906101000a900473ffffffffffffffffffffffffffffffffffffffff1673ffffffffffffffffffffffffffffffffffffffff16631c9c61ea3384846040518463ffffffff1660e01b815260040161044c93929190611048565b600060405180830381600087803b15801561046657600080fd5b505af115801561047a573d6000803e3d6000fd5b505050505050565b600160009054906101000a900473ffffffffffffffffffffffffffffffffffffffff1673ffffffffffffffffffffffffffffffffffffffff1663ce0bf7a133836040518363ffffffff1660e01b81526004016104df92919061107f565b600060405180830381600087803b1580156104f957600080fd5b505af115801561050d573d6000803e3d6000fd5b5050505050565b600160009054906101000a900473ffffffffffffffffffffffffffffffffffffffff1673ffffffffffffffffffffffffffffffffffffffff1663ea4da83633836040518363ffffffff1660e01b815260040161057192919061107f565b600060405180830381600087803b15801561058b57600080fd5b505af115801561059f573d6000803e3d6000fd5b5050505050565b600160009054906101000a900473ffffffffffffffffffffffffffffffffffffffff1673ffffffffffffffffffffffffffffffffffffffff166372546d39338585856040518563ffffffff1660e01b815260040161060794939291906110a8565b600060405180830381600087803b15801561062157600080fd5b505af1158015610635573d6000803e3d6000fd5b50505050505050565b600160009054906101000a900473ffffffffffffffffffffffffffffffffffffffff1673ffffffffffffffffffffffffffffffffffffffff166315ae23c233836040518363ffffffff1660e01b815260040161069b92919061107f565b600060405180830381600087803b1580156106b557600080fd5b505af11580156106c9573d6000803e3d6000fd5b5050505050565b6060600160009054906101000a900473ffffffffffffffffffffffffffffffffffffffff1673ffffffffffffffffffffffffffffffffffffffff166315b651ee336040518263ffffffff1660e01b815260040161072d9190610d13565b600060405180830381865afa15801561074a573d6000803e3d6000fd5b505050506040513d6000823e3d601f19601f820116820180604052508101906107739190610ff0565b905090565b6060600160009054906101000a900473ffffffffffffffffffffffffffffffffffffffff1673ffffffffffffffffffffffffffffffffffffffff1663b496d4e46040518163ffffffff1660e01b8152600401600060405180830381865afa1580156107e7573d6000803e3d6000fd5b505050506040513d6000823e3d601f19601f8201168201806040525081019061081091906111b0565b905090565b6060600160009054906101000a900473ffffffffffffffffffffffffffffffffffffffff1673ffffffffffffffffffffffffffffffffffffffff1663fb1a002a6040518163ffffffff1660e01b8152600401600060405180830381865afa158015610884573d6000803e3d6000fd5b505050506040513d6000823e3d601f19601f820116820180604052508101906108ad9190610ff0565b905090565b600081519050919050565b600082825260208201905092915050565b6000819050602082019050919050565b6000819050919050565b6108f1816108de565b82525050565b600073ffffffffffffffffffffffffffffffffffffffff82169050919050565b6000610922826108f7565b9050919050565b61093281610917565b82525050565b60008115159050919050565b61094d81610938565b82525050565b6101608201600082015161096a60008501826108e8565b50602082015161097d6020850182610929565b5060408201516109906040850182610929565b5060608201516109a360608501826108e8565b5060808201516109b660808501826108e8565b5060a08201516109c960a08501826108e8565b5060c08201516109dc60c0850182610944565b5060e08201516109ef60e08501826108e8565b50610100820151610a046101008501826108e8565b50610120820151610a19610120850182610944565b50610140820151610a2e6101408501826108e8565b50505050565b6000610a408383610953565b6101608301905092915050565b6000602082019050919050565b6000610a65826108b2565b610a6f81856108bd565b9350610a7a836108ce565b8060005b83811015610aab578151610a928882610a34565b9750610a9d83610a4d565b925050600181019050610a7e565b5085935050505092915050565b60006020820190508181036000830152610ad28184610a5a565b905092915050565b6000604051905090565b600080fd5b600080fd5b610af781610917565b8114610b0257600080fd5b50565b600081359050610b1481610aee565b92915050565b600060208284031215610b3057610b2f610ae4565b5b6000610b3e84828501610b05565b91505092915050565b610b50816108de565b8114610b5b57600080fd5b50565b600081359050610b6d81610b47565b92915050565b60008060408385031215610b8a57610b89610ae4565b5b6000610b9885828601610b5e565b9250506020610ba985828601610b05565b9150509250929050565b600060208284031215610bc957610bc8610ae4565b5b6000610bd784828501610b5e565b91505092915050565b600080600060608486031215610bf957610bf8610ae4565b5b6000610c0786828701610b5e565b9350506020610c1886828701610b5e565b9250506040610c2986828701610b5e565b9150509250925092565b600081519050919050565b600082825260208201905092915050565b6000819050602082019050919050565b6000610c6b8383610929565b60208301905092915050565b6000602082019050919050565b6000610c8f82610c33565b610c998185610c3e565b9350610ca483610c4f565b8060005b83811015610cd5578151610cbc8882610c5f565b9750610cc783610c77565b925050600181019050610ca8565b5085935050505092915050565b60006020820190508181036000830152610cfc8184610c84565b905092915050565b610d0d81610917565b82525050565b6000602082019050610d286000830184610d04565b92915050565b600080fd5b6000601f19601f8301169050919050565b7f4e487b7100000000000000000000000000000000000000000000000000000000600052604160045260246000fd5b610d7c82610d33565b810181811067ffffffffffffffff82111715610d9b57610d9a610d44565b5b80604052505050565b6000610dae610ada565b9050610dba8282610d73565b919050565b600067ffffffffffffffff821115610dda57610dd9610d44565b5b602082029050602081019050919050565b600080fd5b600080fd5b600081519050610e0481610b47565b92915050565b600081519050610e1981610aee565b92915050565b610e2881610938565b8114610e3357600080fd5b50565b600081519050610e4581610e1f565b92915050565b60006101608284031215610e6257610e61610df0565b5b610e6d610160610da4565b90506000610e7d84828501610df5565b6000830152506020610e9184828501610e0a565b6020830152506040610ea584828501610e0a565b6040830152506060610eb984828501610df5565b6060830152506080610ecd84828501610df5565b60808301525060a0610ee184828501610df5565b60a08301525060c0610ef584828501610e36565b60c08301525060e0610f0984828501610df5565b60e083015250610100610f1e84828501610df5565b61010083015250610120610f3484828501610e36565b61012083015250610140610f4a84828501610df5565b6101408301525092915050565b6000610f6a610f6584610dbf565b610da4565b9050808382526020820190506101608402830185811115610f8e57610f8d610deb565b5b835b81811015610fb85780610fa38882610e4b565b84526020840193505061016081019050610f90565b5050509392505050565b600082601f830112610fd757610fd6610d2e565b5b8151610fe7848260208601610f57565b91505092915050565b60006020828403121561100657611005610ae4565b5b600082015167ffffffffffffffff81111561102457611023610ae9565b5b61103084828501610fc2565b91505092915050565b611042816108de565b82525050565b600060608201905061105d6000830186610d04565b61106a6020830185611039565b6110776040830184610d04565b949350505050565b60006040820190506110946000830185610d04565b6110a16020830184611039565b9392505050565b60006080820190506110bd6000830187610d04565b6110ca6020830186611039565b6110d76040830185611039565b6110e46060830184611039565b95945050505050565b600067ffffffffffffffff82111561110857611107610d44565b5b602082029050602081019050919050565b600061112c611127846110ed565b610da4565b9050808382526020820190506020840283018581111561114f5761114e610deb565b5b835b8181101561117857806111648882610e0a565b845260208401935050602081019050611151565b5050509392505050565b600082601f83011261119757611196610d2e565b5b81516111a7848260208601611119565b91505092915050565b6000602082840312156111c6576111c5610ae4565b5b600082015167ffffffffffffffff8111156111e4576111e3610ae9565b5b6111f084828501611182565b9150509291505056fea2646970667358221220dc175d945252d609b8581c638ca1d44122b581065ce1c8d4838e02a730bbf48164736f6c63430008130033",
  "linkReferences": {},
  "deployedLinkReferences": {}
}